:100000000C942A000C9420040C9444040C94470093
:100010000C9447000C9447000C9447000C94470044
:100020000C9447000C9447000C9447000C94000774
:100030000C9447000C9447000C9447000C94470024
:100040000C9447000C9447000C9447000C94470014
:100050000C94470011241FBECFE5D8E0DEBFCDBF12
:1000600010E0A0E6B0E0EEEFFEE002C005900D92D9
:10007000A63DB107D9F721E0A6EDB0E001C01D9281
:10008000A430B207E1F70E943D030C947D070C9465
:100090000000662319F06F3F89F00895813041F028
:1000A00028F0823039F0833039F008951ABA089573
:1000B00017BA089514BA089511BA0895813049F015
:1000C00028F0823049F0833051F008958FEF8ABBD9
:1000D00008958FEF87BB08958FEF84BB08958FEF4E
:1000E00081BB08954423B9F1413009F06BC08130E0
:1000F00089F028F08230C9F0833011F108952AB3D5
:1001000081E090E002C0880F991F6A95E2F7822B88
:100110008ABB089527B381E090E002C0880F991F41
:100120006A95E2F7822B87BB089524B381E090E0C3
:1001300002C0880F991F6A95E2F7822B84BB08954D
:1001400021B381E090E002C0880F991F6A95E2F721
:10015000822B81BB0895813091F028F08230D9F054
:10016000833029F108952AB381E090E002C0880F1E
:10017000991F6A95E2F7809582238ABB089527B379
:1001800081E090E002C0880F991F6A95E2F78095A0
:10019000822387BB089524B381E090E002C0880FDA
:1001A000991F6A95E2F78095822384BB089521B355
:1001B00081E090E002C0880F991F6A95E2F7809570
:1001C000822381BB0895813041F028F0823039F0DC
:1001D000833039F008956BBB089568BB089565BB03
:1001E000089562BB08954423B9F1413009F06BC012
:1001F000813089F028F08230C9F0833011F1089500
:100200002BB381E090E002C0880F991F6A95E2F756
:10021000822B8BBB089528B381E090E002C0880F49
:10022000991F6A95E2F7822B88BB089525B381E078
:1002300090E002C0880F991F6A95E2F7822B85BB78
:10024000089522B381E090E002C0880F991F6A955B
:10025000E2F7822B82BB0895813091F028F0823042
:10026000D9F0833029F108952BB381E090E002C0EA
:10027000880F991F6A95E2F7809582238BBB0895BA
:1002800028B381E090E002C0880F991F6A95E2F7D9
:100290008095822388BB089525B381E090E002C059
:1002A000880F991F6A95E2F78095822385BB089590
:1002B00022B381E090E002C0880F991F6A95E2F7AF
:1002C0008095822382BB089540E062E083E00E9433
:1002D000720040E063E083E00E94720080EC8BBF1C
:1002E0008FE085BF0895CF93DF93EC0141E06C81EF
:1002F00089810E94F3008FE891E00197F1F700C037
:10030000000040E06C8189810E94F3008FE891E059
:100310000197F1F700C00000DF91CF9108951F937E
:10032000CF93DF93EC01162F8881811135C060FFD8
:1003300006C041E06E818D810E94F30005C040E05F
:100340006E818D810E94F30011FF06C041E06F8134
:100350008D810E94F30005C040E06F818D810E9475
:10036000F30012FF06C041E068858D810E94F30012
:1003700005C040E068858D810E94F30013FF06C030
:1003800041E069858D810E94F30009C040E06985E4
:100390008D810E94F30003C08D810E94E300DF91F4
:1003A000CF911F9108951F93CF93DF93EC01162FE8
:1003B00040E06A8189810E94F3008881811112C026
:1003C000612F62956F70CE010E948F01CE010E9455
:1003D0007301612F6F70CE010E948F01CE010E94C8
:1003E000730107C0612FCE010E948F01CE010E94D0
:1003F0007301DF91CF911F910895CF93DF93EC01AB
:1004000041E06A8189810E94720041E06B818981AB
:100410000E94720041E06C8189810E94720040E07C
:100420006B8189810E94F300888181113CC041E089
:100430006E818D810E94720041E06F818D810E94EA
:10044000720041E068858D810E94720041E06985FB
:100450008D810E9472002FEF89EF90E02150804043
:100460009040E1F700C0000063E3CE010E94D30199
:100470008FE99FE00197F1F700C0000062E3CE0131
:100480000E94D3018FE99FE00197F1F700C00000BF
:1004900068E2CE010E94D3018FE99FE00197F1F756
:1004A00000C0000017C06FEF8D810E9449009FEFD0
:1004B00029EF80E0915020408040E1F700C000002B
:1004C00068E3CE010E94D3018FE99FE00197F1F725
:1004D00000C0000063E0CE010E94D3018FE19EE4E2
:1004E0000197F1F700C0000063E0CE010E94D30144
:1004F0008FED9BEA0197F1F700C0000063E0CE01A9
:100500000E94D30166E0CE010E94D3018FE99FE0F3
:100510000197F1F700C000006CE0CE010E94D3010A
:100520008FE99FE00197F1F700C0000060E8CE017D
:100530000E94D3018FE99FE00197F1F700C000000E
:10054000DF91CF9108951F93CF93DF93EC01162F86
:1005500041E06A8189810E94F3008881811112C083
:10056000612F62956F70CE010E948F01CE010E94B3
:100570007301612F6F70CE010E948F01CE010E9426
:10058000730107C0612FCE010E948F01CE010E942E
:100590007301DF91CF911F91089520E4629F400D78
:1005A0001124642F60680E94D301089561E00E94C5
:1005B000D3010895EF92FF920F931F93CF93DF9390
:1005C0007C018B01C0E0D0E004C0C7010E94A302FF
:1005D0002196F801EC0FFD1F60816111F6CFDF91CC
:1005E000CF911F910F91FF90EF900895ECEDF0E007
:1005F00091E0908382E0818328E030E0338322839E
:1006000010868187E1EFF0E090838183338322833A
:1006100090878187E7EEF0E0108291839283838355
:1006200083E08483158284E0868385E0878386E087
:10063000808787E081878CED90E00E940F0581EF35
:1006400090E00E940F058CED90E00E946F0681EF14
:1006500090E00E946F0687EE90E00E94FD010E94EC
:1006600052070E940D050E9464010E94680478945C
:1006700084E690E00E94870408950E94F602E12C2F
:10068000F12CC6E4D0E00E9453078531D8F040E059
:1006900060E087EE90E00E94CD0260E670E087EEB9
:1006A00090E00E94DA0240E061E087EE90E00E9474
:1006B000CD0261E770E087EE90E00E94DA020E94CE
:1006C000A404E1CF0E945307863008F45AC040E0EA
:1006D00060E087EE90E00E94CD026FE770E087EE69
:1006E00090E00E94DA0240E061E087EE90E00E9434
:1006F000CD0260E970E087EE90E00E94DA020E948D
:10070000F804CE010E94870486EA0E940E050E942A
:100710005307853170F00E94CE042FEF89E698E1EF
:10072000215080409040E1F700C00000C4E6D0E0D6
:1007300018C08AE50E940E050E945307853170F0AB
:100740000E94E3042FEF89E698E121508040904019
:10075000E1F700C00000C4E6D0E003C080E00E94E2
:100760000E05CF31D1053CF022E3E216F10419F475
:100770002197E12CF12C8FEFE81AF80A0E94A404CB
:1007800082CF40E060E087EE90E00E94CD0264EA14
:1007900070E087EE90E00E94DA0240E061E087EED0
:1007A00090E00E94CD0264EB70E087EE90E00E9442
:1007B000DA0287EE90E00E94D60267EC70E087EEE6
:1007C00090E00E94DA0210E0C2E3D0E034C0CE0133
:1007D0000E9487040E94B90486EA0E940E050E94C6
:1007E0005307853178F00E94CE049FEF29E688E117
:1007F000915020408040E1F700C0000011E0C4E6C5
:10080000D0E019C08AE50E940E050E945307853189
:1008100078F00E94E3049FEF29E688E191502040A0
:100820008040E1F700C0000011E0C4E6D0E003C062
:1008300080E00E940E05112351F20E94A40423CFF0
:100840001F920F920FB60F9211242F933F934F9345
:100850005F936F937F938F939F93AF93BF93EF9328
:10086000FF930E94F804FF91EF91BF91AF919F9188
:100870008F917F916F915F914F913F912F910F9049
:100880000FBE0F901F9018951F920F920FB60F92E8
:1008900011242F933F934F935F936F937F938F9385
:1008A0009F93AF93BF93EF93FF930E94F804FF9140
:1008B000EF91BF91AF919F918F917F916F915F91D8
:1008C0004F913F912F910F900FBE0F901F90189551
:1008D00041E063E082E00E94720041E064E082E077
:1008E0000E94720041E065E082E00E94720041E0F7
:1008F00066E082E00E94720041E064E083E00E94D2
:10090000720041E065E083E00E94720008959C015E
:100910002B5031092935310580F44FEF489F900164
:10092000499F300D1124C90164E670E00E946907F7
:100930007BBD6ABD79BD68BD089580E094E09BBD34
:100940008ABD99BD88BD089541E063E082E00E94C0
:10095000F30040E064E082E00E94F30041E065E0E3
:1009600082E00E94F30040E066E082E00E94F30033
:10097000089541E064E082E00E94F30040E063E01B
:1009800082E00E94F30041E066E082E00E94F30012
:1009900040E065E082E00E94F300089541E063E0FA
:1009A00082E00E94F30040E064E082E00E94F300F5
:1009B00041E066E082E00E94F30040E065E082E012
:1009C0000E94F300089541E064E082E00E94F30099
:1009D00040E063E082E00E94F30041E065E082E0F5
:1009E0000E94F30040E066E082E00E94F300089578
:1009F00040E064E082E00E94F30040E063E082E0D7
:100A00000E94F30040E065E082E00E94F30040E0D5
:100A100066E082E00E94F300089508950895FC01C5
:100A20009FB790689FBF8081811198C0818181119B
:100A30000AC089B7816089BF83B7877F83BF83B7C7
:100A40008F7B83BF0895813061F583B7886083BF52
:100A500083B78F7B83BF8085811107C083B78F7E6B
:100A600083BF83B78F7D83BF0895813039F483B707
:100A7000806183BF83B78F7D83BF0895823039F44F
:100A800083B7806283BF83B78F7E83BF089583302F
:100A900009F024C183B7806183BF83B7806283BFBD
:100AA0000895823061F583B7806483BF83B7877F01
:100AB00083BF8085811107C083B78F7E83BF83B7D3
:100AC0008F7D83BF0895813039F483B7806183BF00
:100AD00083B78F7D83BF0895823039F483B78062F6
:100AE00083BF83B78F7E83BF0895833009F0F6C03C
:100AF00083B7806183BF83B7806283BF08958330EB
:100B000009F0ECC083B7886083BF83B7806483BF7C
:100B10008185811107C083B78F7E83BF83B78F7DA7
:100B200083BF0895813039F483B7806183BF83B771
:100B30008F7D83BF0895823039F483B7806283BF8D
:100B400083B78F7E83BF0895833009F0C7C083B712
:100B5000806183BF83B7806283BF0895813009F0CD
:100B6000BDC08181811105C089B7846089BF1FBC68
:100B70000895813009F4B2C0823009F055C08FB5B4
:100B800081608FBD8085811126C08185811107C05C
:100B90008FB58F7E8FBD8FB58F7D8FBD08958130CE
:100BA00039F48FB580618FBD8FB58F7D8FBD08956E
:100BB000823039F48FB580628FBD8FB58F7E8FBD47
:100BC0000895833009F08AC08FB580618FBD8FB5DD
:100BD00080628FBD0895813009F080C081858111C8
:100BE00007C08FB58F7B8FBD8FB58F778FBD089571
:100BF000813039F48FB580648FBD8FB58F778FBD0D
:100C00000895823039F48FB580688FBD8FB58F7BA2
:100C10008FBD0895833009F061C08FB580648FBDAA
:100C20008FB580688FBD0895833009F057C08FB5A8
:100C300081608FBD8FB58D7F8FBD8EB588608EBD75
:100C40008085811125C08185811107C08FB58F7E78
:100C50008FBD8FB58F7D8FBD0895813039F48FB5ED
:100C600080618FBD8FB58F7D8FBD0895823039F43F
:100C70008FB580628FBD8FB58F7E8FBD0895833015
:100C800069F58FB580618FBD8FB580628FBD089586
:100C9000813021F58185811107C08FB58F7B8FBD94
:100CA0008FB58F778FBD0895813039F48FB580640B
:100CB0008FBD8FB58F778FBD0895823039F48FB592
:100CC00080688FBD8FB58F7B8FBD0895833031F4E1
:100CD0008FB580648FBD8FB580688FBD0895FC018E
:100CE0002081211145C0828193818130910551F489
:100CF00083B7816083BF83B78D7F83BF83B78B7FCB
:100D000083BF08958830910551F483B78E7F83BFE8
:100D100083B7826083BF83B78B7F83BF089580349E
:100D2000910551F483B7816083BF83B7826083BF2D
:100D300083B78B7F83BF08958115F1E09F0751F43E
:100D400083B78E7F83BF83B78D7F83BF83B7846074
:100D500083BF08958115944009F051C083B7816025
:100D600083BF83B78D7F83BF83B7846083BF0895BC
:100D7000213009F044C0FC018281938181309105CA
:100D800051F48EB581608EBD8EB58D7F8EBD8EB5D2
:100D90008B7F8EBD08958830910551F48EB58E7F7E
:100DA0008EBD8EB582608EBD8EB58B7F8EBD089553
:100DB0008034910551F48EB581608EBD8EB5826010
:100DC0008EBD8EB58B7F8EBD08958115F1E09F0796
:100DD00051F48EB58E7F8EBD8EB58D7F8EBD8EB556
:100DE00084608EBD08958115944049F48EB581606C
:100DF0008EBD8EB58D7F8EBD8EB584608EBD0895FF
:100E00001F920F920FB60F9211242F933F934F937F
:100E10005F936F937F938F939F93AF93BF93EF9362
:100E2000FF938091D6009091D700A091D800B09107
:100E3000D9000196A11DB11D8093D6009093D700D3
:100E4000A093D800B093D9004091FC005091FD00D0
:100E50006091FE007091FF0084179507A607B70701
:100E600081F48091000182BFE091DA00F091DB0013
:100E700009951092D6001092D7001092D8001092C7
:100E8000D900FF91EF91BF91AF919F918F917F9189
:100E90006F915F914F913F912F910F900FBE0F90E7
:100EA0001F90189508958EE10895AA1BBB1B51E170
:100EB00007C0AA1FBB1FA617B70710F0A61BB70BCA
:100EC000881F991F5A95A9F780959095BC01CD016F
:100ED000089597FB072E16F4009407D077FD09D0EC
:100EE0000E94550707FC05D03EF4909581959F4FD1
:0E0EF0000895709561957F4F0895F894FFCF97
:100EFE0044697374616E6365203E20323020636DE9
:100F0E00006D6F766520666F7265776F7264004450
:100F1E00697374616E6365203C20323020636D000E
:100F2E007363616E6E696E6720666F72206F757483
:100F3E007075740044697374616E6365203C20356E
:100F4E0020636D007468657265206973206E6F2072
:100F5E006F7574707574006D6F7665206261636B6A
:060F6E00776172640000CF
:00000001FF
