:100000000C942A000C94BF020C94C9020C94340086
:100010000C9434000C9434000C9434000C94340090
:100020000C9434000C9434000C9434000C94340080
:100030000C9434000C9434000C9434000C94340070
:100040000C9434000C9434000C9434000C94340060
:100050000C94340011241FBECFE5D8E0DEBFCDBF25
:100060000E94BC020C94D3020C940000662319F089
:100070006F3F89F00895813041F028F0823039F0E7
:10008000833039F008951ABA089517BA089514BA4A
:10009000089511BA0895813049F028F0823049F06E
:1000A000833051F008958FEF8ABB08958FEF87BB9F
:1000B00008958FEF84BB08958FEF81BB089544238B
:1000C000B9F1413009F06BC0813089F028F08230FD
:1000D000C9F0833011F108952AB381E090E002C0A5
:1000E000880F991F6A95E2F7822B8ABB089527B380
:1000F00081E090E002C0880F991F6A95E2F7822B99
:1001000087BB089524B381E090E002C0880F991F57
:100110006A95E2F7822B84BB089521B381E090E0D9
:1001200002C0880F991F6A95E2F7822B81BB089560
:10013000813091F028F08230D9F0833029F1089590
:100140002AB381E090E002C0880F991F6A95E2F718
:10015000809582238ABB089527B381E090E002C096
:10016000880F991F6A95E2F78095822387BB0895CF
:1001700024B381E090E002C0880F991F6A95E2F7EE
:100180008095822384BB089521B381E090E002C072
:10019000880F991F6A95E2F78095822381BB0895A5
:1001A000813041F028F0823039F0833039F0089501
:1001B0006BBB089568BB089565BB089562BB089545
:1001C0004423B9F1413009F06BC0813089F028F047
:1001D0008230C9F0833011F108952BB381E090E0B3
:1001E00002C0880F991F6A95E2F7822B8BBB089596
:1001F00028B381E090E002C0880F991F6A95E2F76A
:10020000822B88BB089525B381E090E002C0880F5F
:10021000991F6A95E2F7822B85BB089522B381E08E
:1002200090E002C0880F991F6A95E2F7822B82BB8B
:100230000895813091F028F08230D9F0833029F18F
:1002400008952BB381E090E002C0880F991F6A9552
:10025000E2F7809582238BBB089528B381E090E07C
:1002600002C0880F991F6A95E2F78095822388BBA8
:10027000089525B381E090E002C0880F991F6A9528
:10028000E2F78095822385BB089522B381E090E058
:1002900002C0880F991F6A95E2F78095822382BB7E
:1002A000089541E062E083E00E945F0041E063E086
:1002B00083E00E945F000895CF93DF93EC0141E05B
:1002C0006C8189810E94E0008FE891E00197F1F74D
:1002D00000C0000040E06C8189810E94E0008FE84E
:1002E00091E00197F1F700C00000DF91CF910895F0
:1002F0001F93CF93DF93EC01162F8881811135C0B6
:1003000060FF06C041E06E818D810E94E00005C063
:1003100040E06E818D810E94E00011FF06C041E047
:100320006F818D810E94E00005C040E06F818D816A
:100330000E94E00012FF06C041E068858D810E94A6
:10034000E00005C040E068858D810E94E00013FF59
:1003500006C041E069858D810E94E00009C040E04F
:1003600069858D810E94E00003C08D810E94D000CC
:10037000DF91CF911F9108951F93CF93DF93EC01ED
:10038000162F40E06A8189810E94E00088818111F6
:1003900012C0612F62956F70CE010E947801CE016C
:1003A0000E945C01612F6F70CE010E947801CE0126
:1003B0000E945C0107C0612FCE010E947801CE012E
:1003C0000E945C01DF91CF911F910895CF93DF933D
:1003D000EC0141E06A8189810E945F0041E06B810C
:1003E00089810E945F0041E06C8189810E945F00E9
:1003F00040E06B8189810E94E000888181113CC0CE
:1004000041E06E818D810E945F0041E06F818D81AE
:100410000E945F0041E068858D810E945F0041E09D
:1004200069858D810E945F002FEF89EF90E0215058
:1004300080409040E1F700C0000063E3CE010E94DD
:10044000BC018FE99FE00197F1F700C0000062E373
:10045000CE010E94BC018FE99FE00197F1F700C037
:10046000000068E2CE010E94BC018FE99FE0019785
:10047000F1F700C0000017C06FEF8D810E943600B9
:100480009FEF29EF80E0915020408040E1F700C0CD
:10049000000068E3CE010E94BC018FE99FE0019754
:1004A000F1F700C0000063E0CE010E94BC018FE1C3
:1004B0009EE40197F1F700C0000063E0CE010E94C6
:1004C000BC018FED9BEA0197F1F700C0000063E0EB
:1004D000CE010E94BC0166E0CE010E94BC018FE902
:1004E0009FE00197F1F700C000006CE0CE010E9490
:1004F000BC018FE99FE00197F1F700C0000060E8C0
:10050000CE010E94BC018FE99FE00197F1F700C086
:100510000000DF91CF9108951F93CF93DF93CDB764
:10052000DEB72A970FB6F894DEBF0FBECDBF198293
:1005300081E08A838B8382E08C8313E01D831E829B
:1005400084E08F8385E0888786E0898787E08A87D3
:10055000CE0101960E94E6010E94510180EC8BBF02
:1005600015BF78942A960FB6F894DEBF0FBECDBFA4
:10057000DF91CF911F9108950E948C02FFCF1F92AF
:100580000F920FB60F9211240F900FBE0F901F9075
:1005900018951F920F920FB60F9211240F900FBE55
:0A05A0000F901F901895F894FFCFFC
:00000001FF
